:100000000C942A000C9447000C9447000C94470071
:100010000C9447000C9447000C9461150C94071540
:100020000C9434150C94DA140C9447000C9447008B
:100030000C9447000C9417160C9444160C947116EB
:100040000C941B060C9447000C9447000C9447003A
:100050000C94470011241FBECFE5D8E0DEBFCDBF12
:1000600011E0A0E6B0E0EEEBF0E402C005900D92E6
:10007000A635B107D9F711E0A6E5B1E001C01D92A0
:10008000A538B107E1F70E94C1160C945D200C94CD
:100090000000EF92FF920F931F937B018C0120E0F1
:1000A00030E040E05FE40E94490388238CF0C801FF
:1000B000B70120E030E040E05FE40E94C1010E940F
:1000C000A9039B01AC01205030404040504806C07D
:1000D000C801B7010E94A9039B01AC01B901CA0183
:1000E0001F910F91FF90EF900895A0E0B0E0EBE733
:1000F000F0E00C942620DC012B01FA019C91923057
:1001000008F439C1EB018881823008F433C194309E
:1001100069F4843009F02FC111969C91119789815F
:10012000981709F428C1ABE1B1E025C1843009F486
:1001300021C18230A9F4923009F01DC19A01AD01AC
:1001400088E0EA010990AE01E90109929E0181501F
:10015000C1F7E201898111969C918923818308C1AD
:10016000923009F407C112962D903C901397EB0141
:100170008A819B811496AD90BD90CD90DC901797AD
:10018000EC80FD800E811F819101281B390BB90184
:1001900037FF04C066277727621B730B6032710537
:1001A0000CF061C0121613066CF537014801062EDB
:1001B00004C096948794779467940A94D2F721E0C8
:1001C00030E040E050E004C0220F331F441F551FB1
:1001D0006A95D2F721503040404050402E213F21B7
:1001E00040235123211531054105510521F021E01E
:1001F00030E040E050E079018A01E628F72808293C
:1002000019293CC0232BD1F1260E371E350146019A
:10021000062E04C096948794779467940A94D2F734
:1002200021E030E040E050E004C0220F331F441FC3
:10023000551F6A95D2F721503040404050402A2146
:100240003B214C215D21211531054105510521F04E
:1002500021E030E040E050E059016A01A628B728CB
:10026000C828D9280BC0821593052CF01C01AA249C
:10027000BB24650103C0EE24FF24870111969C91E5
:10028000D20111968C91981709F445C0992339F041
:10029000A80197012A193B094C095D0906C0A6016E
:1002A00095012E193F09400B510B57FD08C01182D3
:1002B0003382228224833583468357831DC081E0A5
:1002C00081833382228288279927DC01821B930B4A
:1002D000A40BB50B84839583A683B7830DC0220F2F
:1002E000331F441F551F24833583468357838281E0
:1002F000938101979383828324813581468157813D
:10030000DA01C9010197A109B1098F5F9F4FAF4F72
:10031000BF4328F30BC0918333822282EA0CFB1C7B
:100320000C1D1D1DE482F5820683178383E0808304
:10033000248135814681578157FF1AC0C901AA27F8
:1003400097FDA095BA2F81709070A070B0705695EF
:10035000479537952795822B932BA42BB52B848318
:100360009583A683B7838281938101969383828349
:10037000DF0101C0D201CD01CDB7DEB7E2E10C94BF
:100380004220A0E2B0E0E7ECF1E00C943220698377
:100390007A838B839C832D833E834F835887E9E048
:1003A000EE2EF12CEC0EFD1ECE010196B7010E943F
:1003B000D2048E010F5E1F4FCE010596B8010E9438
:1003C000D2048A8991E089278A8BC701B801AE01DE
:1003D000475E5F4F0E9475000E94FD03A096E6E015
:1003E0000C944E20A0E2B0E0E8EFF1E00C94322053
:1003F00069837A838B839C832D833E834F835887C5
:10040000F9E0EF2EF12CEC0EFD1ECE010196B701A6
:100410000E94D2048E010F5E1F4FCE010596B801D7
:100420000E94D204C701B801AE01475E5F4F0E942F
:1004300075000E94FD03A096E6E00C944E20A0E219
:10044000B0E0E5E2F2E00C94262069837A838B83A6
:100450009C832D833E834F835887CE010196BE0136
:10046000675F7F4F0E94D204CE010596BE016F5E8A
:100470007F4F0E94D2049985923088F0898982301A
:10048000C8F0943019F4823051F404C0843029F457
:10049000923081F48BE191E0C6C0923049F420E0C3
:1004A0009A858A89981321E02A87CE010996BBC0D4
:1004B000823049F420E09A858A89981321E02A8BBA
:1004C000CE014196B0C02D843E844F8458886D88FB
:1004D0007E888F88988CEE24FF248701AA24BB2471
:1004E000650140E050E060E070E0E0E0F0E0C10174
:1004F00081709070892BE9F0E60CF71C081D191D1E
:100500009A01AB012A0D3B1D4C1D5D1D80E090E062
:10051000A0E0B0E0E614F7040805190520F481E036
:1005200090E0A0E0B0E0BA01A901480F591F6A1F8E
:100530007B1FAA0CBB1CCC1CDD1C97FE08C081E0F5
:1005400090E0A0E0B0E0A82AB92ACA2ADB2A3196B6
:10055000E032F10549F0660C771C881C991C569412
:10056000479437942794C3CFFA85EA892B893C892D
:100570008B859C85280F391F2E5F3F4F17C0CA01FE
:1005800081709070892B61F016950795F794E79428
:1005900080E090E0A0E0B0E8E82AF92A0A2B1B2BC3
:1005A00076956795579547952F5F3F4F77FDE7CF36
:1005B0000CC0440F551F661F771F17FD4160EE0CDE
:1005C000FF1C001F111F21503040403090E05907A0
:1005D00090E0690790E4790760F32B8F3C8FDB0193
:1005E000CA018F779070A070B07080349105A1051A
:1005F000B10561F447FD0AC0E114F10401051105DC
:1006000029F0405C5F4F6F4F7F4F40781A8EFE1786
:1006100011F081E08A8F4D8F5E8F6F8F78A383E01A
:10062000898FCE0149960E94FD03A096E2E10C94C9
:100630004220A8E1B0E0EFE1F3E00C9432206983BE
:100640007A838B839C832D833E834F83588789E0F5
:10065000E82EF12CEC0EFD1ECE010196B7010E9492
:10066000D2048E010F5E1F4FCE010596B8010E9485
:10067000D2048985823040F08989823028F0C70110
:10068000B8010E944A0501C08FEF6896E6E00C941D
:100690004E20A8E1B0E0EFE4F3E00C94322069834F
:1006A0007A838B839C832D833E834F83588789E095
:1006B000E82EF12CEC0EFD1ECE010196B7010E9432
:1006C000D2048E010F5E1F4FCE010596B8010E9425
:1006D000D2048985823040F08989823028F0C701B0
:1006E000B8010E944A0501C08FEF6896E6E00C94BD
:1006F0004E20A8E1B0E0EFE7F3E00C9432206983EC
:100700007A838B839C832D833E834F83588789E034
:10071000E82EF12CEC0EFD1ECE010196B7010E94D1
:10072000D2048E010F5E1F4FCE010596B8010E94C4
:10073000D2048985823040F08989823028F0C7014F
:10074000B8010E944A0501C081E06896E6E00C9479
:100750004E20ACE0B0E0EFEAF3E00C943620698381
:100760007A838B839C83CE010196BE016B5F7F4FA2
:100770000E94D2048D81823061F1823050F1843048
:1007800021F48E81882351F12EC02F81388537FDC9
:1007900020C06E812F3131051CF06623F9F023C093
:1007A0008EE190E0821B930B29853A854B855C8511
:1007B00004C056954795379527958A95D2F76623B5
:1007C000B1F050954095309521953F4F4F4F5F4F79
:1007D0000EC020E030E040E050E009C02FEF3FEFD6
:1007E0004FEF5FE704C020E030E040E050E8B9019F
:1007F000CA012C96E2E00C945220DF92EF92FF9215
:100800000F931F93FC01E480F58006811781D1804E
:100810008081823048F480E090E0A0E1B0E0E82AF6
:10082000F92A0A2B1B2BA5C0843009F49FC0823003
:1008300021F4EE24FF24870105C0E114F104010531
:10084000110519F4E0E0F0E096C0628173819FEF3A
:10085000623879070CF05BC022E83FEF261B370BAC
:100860002A3131052CF020E030E040E050E02AC091
:10087000B801A701022E04C0769567955795479554
:100880000A94D2F781E090E0A0E0B0E004C0880FC5
:10089000991FAA1FBB1F2A95D2F70197A109B10979
:1008A0008E219F21A023B1230097A105B10521F03E
:1008B00081E090E0A0E0B0E09A01AB01282B392B59
:1008C0004A2B5B2BDA01C9018F779070A070B07052
:1008D00080349105A105B10539F427FF09C0205CDA
:1008E0003F4F4F4F5F4F04C0215C3F4F4F4F5F4F13
:1008F000E0E0F0E02030A0E03A07A0E04A07A0E402
:100900005A0710F0E1E0F0E079018A0127C0603871
:10091000710564F5FB01E158FF4FD801C7018F77DE
:100920009070A070B07080349105A105B10539F4C4
:10093000E7FE0DC080E490E0A0E0B0E004C08FE3EB
:1009400090E0A0E0B0E0E80EF91E0A1F1B1F17FFA1
:1009500005C016950795F794E794319687E01695AC
:100960000795F794E7948A95D1F705C0EE24FF2404
:100970008701EFEFF0E06E2F679566276795902F60
:100980009F77D794DD24D7948E2F8695492F462BB9
:10099000582F5D29B701CA011F910F91FF90EF9069
:1009A000DF900895FC01DB01408151812281622F9B
:1009B0006F7770E0221F2227221F9381892F880FD3
:1009C000822B282F30E0991F9927991F11969C930D
:1009D000119721153105A9F54115510561057105DD
:1009E00011F482E037C082E89FEF13969C938E93B8
:1009F00012979A01AB0167E0220F331F441F551F66
:100A00006A95D1F783E08C930DC0220F331F441FEA
:100A1000551F12968D919C911397019713969C9355
:100A20008E931297203080E0380780E0480780E4FA
:100A3000580758F314962D933D934D935C93179755
:100A400008952F3F310579F4411551056105710570
:100A500019F484E08C93089564FF03C081E08C93C3
:100A600012C01C9210C02F57304013963C932E9307
:100A7000129783E08C9387E0440F551F661F771F02
:100A80008A95D1F7706414964D935D936D937C9322
:100A9000179708951F93DC01FB019C91923008F495
:100AA00047C08081823008F443C0943051F41196DD
:100AB0001C91843099F58181682F70E0611B710968
:100AC0003FC0843021F0923031F48230B9F181811D
:100AD000882389F12DC011961C9111978230F1F075
:100AE00081811817D9F412962D913C911397828128
:100AF00093818217930794F028173907BCF0149656
:100B00008D919D910D90BC91A02D248135814681C0
:100B10005781281739074A075B0718F4112341F05A
:100B20000AC082179307A407B50740F4112319F0F0
:100B300061E070E005C06FEF7FEF02C060E070E041
:100B4000CB011F910895DF93CF93CDB7DEB7E7E2D6
:100B5000F0E080E48083E6E2F0E087E88083A6E2CC
:100B6000B0E0E6E2F0E0808188608C93CF91DF9185
:100B70000895DF93CF930F92CDB7DEB78983898134
:100B800087708983A7E2B0E0E7E2F0E08081982FE8
:100B9000987F8981892B8C93E6E2F0E080EC80835A
:100BA000E6E2F0E0808182958F70882F90E081707E
:100BB00090700097A9F3E4E2F0E0808191810F90BA
:100BC000CF91DF910895DF93CF930F92CDB7DEB72A
:100BD0008983898187708983A7E2B0E0E7E2F0E04A
:100BE0008081982F987F8981892B8C93E6E2F0E0B1
:100BF00088EC80830F90CF91DF910895DF93CF939E
:100C0000CDB7DEB7E4E2F0E080819181CF91DF9152
:100C10000895DF93CF9300D0CDB7DEB79A83898351
:100C200089819A8190935701809356010F900F907C
:100C3000CF91DF9108951F920F920FB60F9211245A
:100C40002F933F934F935F936F937F938F939F93D4
:100C5000AF93BF93EF93FF93DF93CF93CDB7DEB7FF
:100C6000E0915601F09157010995CF91DF91FF91E5
:100C7000EF91BF91AF919F918F917F916F915F9114
:100C80004F913F912F910F900FBE0F901F9018958D
:100C9000DF93CF93CDB7DEB727970FB6F894DEBFBB
:100CA0000FBECDBF89836A834B838981843008F06E
:100CB000EEC08A81883008F0EAC08B81882309F071
:100CC00074C08981282F30E03F832E838E819F81DD
:100CD0008130910559F12E813F81223031052CF46C
:100CE0008E819F81009769F0D2C02E813F81223092
:100CF000310589F18E819F818330910509F440C0CF
:100D0000C6C0ABE3B0E0EBE3F0E08081482F8A811E
:100D1000282F30E081E090E0022E02C0880F991F5A
:100D20000A94E2F7809584238C93B1C0A8E3B0E0E5
:100D3000E8E3F0E08081482F8A81282F30E081E0CD
:100D400090E0022E02C0880F991F0A94E2F7809566
:100D500084238C939CC0A5E3B0E0E5E3F0E08081C0
:100D6000482F8A81282F30E081E090E0022E02C0D7
:100D7000880F991F0A94E2F7809584238C9387C08B
:100D8000A2E3B0E0E2E3F0E08081482F8A81282FDF
:100D900030E081E090E0022E02C0880F991F0A9493
:100DA000E2F7809584238C9372C08B81813009F0A7
:100DB0006EC08981282F30E03D832C838C819D81FA
:100DC0008130910549F12C813D81223031052CF48F
:100DD0008C819D81009761F05AC02C813D81223029
:100DE000310571F18C819D8183309105E9F14FC00E
:100DF000ABE3B0E0EBE3F0E08081482F8A81282F5D
:100E000030E081E090E0022E02C0880F991F0A9422
:100E1000E2F7842B8C933BC0A8E3B0E0E8E3F0E07A
:100E20008081482F8A81282F30E081E090E0022ED7
:100E300002C0880F991F0A94E2F7842B8C9327C075
:100E4000A5E3B0E0E5E3F0E08081482F8A81282F18
:100E500030E081E090E0022E02C0880F991F0A94D2
:100E6000E2F7842B8C9313C0A2E3B0E0E2E3F0E05E
:100E70008081482F8A81282F30E081E090E0022E87
:100E800002C0880F991F0A94E2F7842B8C9327964F
:100E90000FB6F894DEBF0FBECDBFCF91DF9108959E
:100EA000DF93CF93CDB7DEB727970FB6F894DEBFA9
:100EB0000FBECDBF89836A834B838981843008F05C
:100EC000EEC08A81883008F0EAC08B81882309F05F
:100ED00074C08981282F30E03F832E838E819F81CB
:100EE0008130910559F12E813F81223031052CF45A
:100EF0008E819F81009769F0D2C02E813F81223080
:100F0000310589F18E819F818330910509F440C0BC
:100F1000C6C0AAE3B0E0EAE3F0E08081482F8A810E
:100F2000282F30E081E090E0022E02C0880F991F48
:100F30000A94E2F7809584238C93B1C0A7E3B0E0D4
:100F4000E7E3F0E08081482F8A81282F30E081E0BC
:100F500090E0022E02C0880F991F0A94E2F7809554
:100F600084238C939CC0A4E3B0E0E4E3F0E08081B0
:100F7000482F8A81282F30E081E090E0022E02C0C5
:100F8000880F991F0A94E2F7809584238C9387C079
:100F9000A1E3B0E0E1E3F0E08081482F8A81282FCF
:100FA00030E081E090E0022E02C0880F991F0A9481
:100FB000E2F7809584238C9372C08B81813009F095
:100FC0006EC08981282F30E03D832C838C819D81E8
:100FD0008130910549F12C813D81223031052CF47D
:100FE0008C819D81009761F05AC02C813D81223017
:100FF000310571F18C819D8183309105E9F14FC0FC
:10100000AAE3B0E0EAE3F0E08081482F8A81282F4C
:1010100030E081E090E0022E02C0880F991F0A9410
:10102000E2F7842B8C933BC0A7E3B0E0E7E3F0E06A
:101030008081482F8A81282F30E081E090E0022EC5
:1010400002C0880F991F0A94E2F7842B8C9327C063
:10105000A4E3B0E0E4E3F0E08081482F8A81282F08
:1010600030E081E090E0022E02C0880F991F0A94C0
:10107000E2F7842B8C9313C0A1E3B0E0E1E3F0E04E
:101080008081482F8A81282F30E081E090E0022E75
:1010900002C0880F991F0A94E2F7842B8C9327963D
:1010A0000FB6F894DEBF0FBECDBFCF91DF9108958C
:1010B000DF93CF9300D000D0CDB7DEB789836A83AA
:1010C0008981843090F58981282F30E03C832B83FF
:1010D0008B819C8181309105D1F02B813C81223024
:1010E00031052CF48B819C81009761F01EC02B810F
:1010F0003C812230310581F08B819C8183309105C8
:1011000081F013C0EBE3F0E08A8180830EC0E8E356
:10111000F0E08A81808309C0E5E3F0E08A81808382
:1011200004C0E2E3F0E08A8180830F900F900F907B
:101130000F90CF91DF910895DF93CF9300D000D02F
:10114000CDB7DEB789836A838981843090F5898140
:10115000282F30E03C832B838B819C81813091054B
:10116000D1F02B813C81223031052CF48B819C8184
:10117000009761F01EC02B813C812230310581F047
:101180008B819C818330910581F013C0EAE3F0E00C
:101190008A8180830EC0E7E3F0E08A81808309C002
:1011A000E4E3F0E08A81808304C0E1E3F0E08A8137
:1011B00080830F900F900F900F90CF91DF91089543
:1011C000DF93CF9300D000D0CDB7DEB789836A8399
:1011D0008981843090F58981282F30E03C832B83EE
:1011E0008B819C8181309105D1F02B813C81223013
:1011F00031052CF48B819C81009761F01EC02B81FE
:101200003C812230310581F08B819C8183309105B6
:1012100081F013C0EAE3F0E08A8180830EC0E7E347
:10122000F0E08A81808309C0E4E3F0E08A81808372
:1012300004C0E1E3F0E08A8180830F900F900F906B
:101240000F90CF91DF910895DF93CF9300D000D01E
:10125000CDB7DEB789836A838981843090F589812F
:10126000282F30E03C832B838B819C81813091053A
:10127000D1F02B813C81223031052CF48B819C8173
:10128000009761F01EC02B813C812230310581F036
:101290008B819C818330910581F013C0EBE3F0E0FA
:1012A0008A8180830EC0E8E3F0E08A81808309C0F0
:1012B000E5E3F0E08A81808304C0E2E3F0E08A8124
:1012C00080830F900F900F900F90CF91DF91089532
:1012D000DF93CF9300D000D00F92CDB7DEB78A83D3
:1012E0006B838FEF89838A81843008F06BC08B8198
:1012F000883008F067C08A81282F30E03D832C8336
:101300004C815D814130510541F18C819D8182305C
:10131000910534F42C813D812115310561F052C0D5
:101320004C815D814230510551F18C819D8183302A
:101330009105B9F147C0E9E3F0E08081282F30E062
:101340008B81882F90E0A90102C0559547958A9519
:10135000E2F7CA018170898335C0E6E3F0E080815D
:10136000282F30E08B81882F90E0A90102C055958D
:1013700047958A95E2F7CA018170898323C0E3E328
:10138000F0E08081282F30E08B81882F90E0A90148
:1013900002C0559547958A95E2F7CA018170898305
:1013A00011C0E0E3F0E08081282F30E08B81882FAE
:1013B00090E0A90102C0559547958A95E2F7CA01C8
:1013C0008170898389810F900F900F900F900F90FB
:1013D000CF91DF910895DF93CF9300D000D0CDB7A8
:1013E000DEB789836A838A818F708A838981282FF7
:1013F00030E03C832B838B819C818130910529F1E6
:101400002B813C81223031052CF48B819C8100970B
:1014100061F04AC02B813C812230310531F18B8152
:101420009C818330910589F13FC0ABE3B0E0EBE3F1
:10143000F0E08081807F8C93ABE3B0E0EBE3F0E001
:1014400090818A81892B8C932FC0A8E3B0E0E8E3D8
:10145000F0E08081807F8C93A8E3B0E0E8E3F0E0E7
:1014600090818A81892B8C931FC0A5E3B0E0E5E3CE
:10147000F0E08081807F8C93A5E3B0E0E5E3F0E0CD
:1014800090818A81892B8C930FC0A2E3B0E0E2E3C4
:10149000F0E08081807F8C93A2E3B0E0E2E3F0E0B3
:1014A00090818A81892B8C930F900F900F900F90D1
:1014B000CF91DF910895DF93CF9300D000D0CDB7C7
:1014C000DEB789836A838A81807F8A838981282F16
:1014D00030E03C832B838B819C818130910529F105
:1014E0002B813C81223031052CF48B819C8100972B
:1014F00061F04AC02B813C812230310531F18B8172
:101500009C818330910589F13FC0ABE3B0E0EBE310
:10151000F0E080818F708C93ABE3B0E0EBE3F0E020
:1015200090818A81892B8C932FC0A8E3B0E0E8E3F7
:10153000F0E080818F708C93A8E3B0E0E8E3F0E006
:1015400090818A81892B8C931FC0A5E3B0E0E5E3ED
:10155000F0E080818F708C93A5E3B0E0E5E3F0E0EC
:1015600090818A81892B8C930FC0A2E3B0E0E2E3E3
:10157000F0E080818F708C93A2E3B0E0E2E3F0E0D2
:1015800090818A81892B8C930F900F900F900F90F0
:10159000CF91DF910895DF93CF9300D00F92CDB715
:1015A000DEB78A836B8384E0898308C08A8169817E
:1015B0004B810E94500789818F5F898389818830A0
:1015C000A8F30F900F900F90CF91DF910895DF93C4
:1015D000CF9300D00F92CDB7DEB789837B836A8328
:1015E0000E948F1180EA0E94F11189810E94671286
:1015F0000E94C01180EA0E942F128A819B810E9462
:1016000097120E94CC120F900F900F90CF91DF9104
:101610000895DF93CF93CDB7DEB760970FB6F894F8
:10162000DEBF0FBECDBF8F87688B0E948F1180EA0F
:101630000E94F1118F850E94671288890E946712AB
:101640000E94CC1280E090E0A0E2B1E48B879C87FE
:10165000AD87BE876B857C858D859E8520E030E0DB
:101660004AEF54E40E941F02DC01CB018F8398876C
:10167000A987BA876F81788589859A8520E030E0CF
:1016800040E85FE30E94790388232CF481E090E036
:101690009E838D833FC06F81788589859A8520E000
:1016A0003FEF4FE757E40E94190318164CF56B857E
:1016B0007C858D859E8520E030E040E251E40E94EB
:1016C0001F02DC01CB01BC01CD010E944900DC01FD
:1016D000CB019E838D830FC088EC90E09C838B832D
:1016E0008B819C810197F1F79C838B838D819E81F7
:1016F00001979E838D838D819E81009769F714C029
:101700006F81788589859A850E944900DC01CB012B
:101710009E838D838D819E819A83898389819A811D
:101720000197F1F79A83898360960FB6F894DEBF2C
:101730000FBECDBFCF91DF910895DF93CF93CDB78B
:10174000DEB7AFE5B0E0EFE5F0E0808180688C9334
:10175000CF91DF910895DF93CF93CDB7DEB7AFE59B
:10176000B0E0EFE5F0E080818F778C93CF91DF914F
:101770000895DF93CF93CDB7DEB761970FB6F89496
:10178000DEBF0FBECDBF8FEF898B188AABC082E062
:10179000688940E00E94480684E08F8797C082E015
:1017A0006F850E946809882309F08DC08F85882F76
:1017B00090E0AC01445050408889282F30E0CA01A5
:1017C000880F991F880F991F820F931FFC01EB5BF5
:1017D000FE4F8081898B80E090E0A0E2B1E48B87AE
:1017E0009C87AD87BE876B857C858D859E8520E037
:1017F00030E04AEF54E40E941F02DC01CB018F83EA
:101800009887A987BA876F81788589859A8520E02E
:1018100030E040E85FE30E94790388232CF481E004
:1018200090E09E838D833FC06F81788589859A85FE
:1018300020E03FEF4FE757E40E94190318164CF5DC
:101840006B857C858D859E8520E030E040E251E40B
:101850000E941F02DC01CB01BC01CD010E944900A6
:10186000DC01CB019E838D830FC088EC90E09C83CC
:101870008B838B819C810197F1F79C838B838D8176
:101880009E8101979E838D838D819E81009769F74C
:1018900014C06F81788589859A850E944900DC0192
:1018A000CB019E838D838D819E819A8389838981DB
:1018B0009A810197F1F79A83898382E06F850E946C
:1018C00068098823D1F38F858F5F8F878F85883054
:1018D00008F465CF82E0688941E00E944806888963
:1018E0008F5F888B8889843008F451CF898961960D
:1018F0000FB6F894DEBF0FBECDBFCF91DF91089534
:101900000F931F93DF93CF9300D00F92CDB7DEB725
:1019100019820FC08981282F30E08A819B818C0138
:10192000020F131F0E94B90BF801808389818F5F1A
:1019300089838981843070F38A819B810F900F9015
:101940000F90CF91DF911F910F910895DF93CF9367
:10195000CDB7DEB7E8970FB6F894DEBF0FBECDBFA8
:1019600081E06FEF0E94E00880E062E041E00E94C9
:10197000500780E061E041E00E94500780E090E085
:10198000A8ECB2E48DAB9EABAFABB8AF6DA97EA9AE
:101990008FA998AD20E030E04AEF54E40E941F0286
:1019A000DC01CB0189AB9AABABABBCAB69A97AA923
:1019B0008BA99CA920E030E040E85FE30E94790316
:1019C00088232CF481E090E098AB8FA73FC069A9F1
:1019D0007AA98BA99CA920E03FEF4FE757E40E942A
:1019E000190318164CF56DA97EA98FA998AD20E0B2
:1019F00030E040E251E40E941F02DC01CB01BC0157
:101A0000CD010E944900DC01CB0198AB8FA70FC02C
:101A100088EC90E09EA78DA78DA59EA50197F1F774
:101A20009EA78DA78FA598A9019798AB8FA78FA583
:101A300098A9009769F714C069A97AA98BA99CA9EC
:101A40000E944900DC01CB0198AB8FA78FA598A914
:101A50009CA78BA78BA59CA50197F1F79CA78BA7AB
:101A600088E30E949B0E80E090E0A0E0B0E48FA3AA
:101A700098A7A9A7BAA76FA178A589A59AA520E0DC
:101A800030E04AEF54E40E941F02DC01CB018BA33B
:101A90009CA3ADA3BEA36BA17CA18DA19EA120E0C0
:101AA00030E040E85FE30E94790388232CF481E072
:101AB00090E09AA389A33FC06BA17CA18DA19EA1B8
:101AC00020E03FEF4FE757E40E94190318164CF54A
:101AD0006FA178A589A59AA520E030E040E251E405
:101AE0000E941F02DC01CB01BC01CD010E94490014
:101AF000DC01CB019AA389A30FC088EC90E098A3E6
:101B00008F8F8F8D98A10197F1F798A38F8F89A15F
:101B10009AA101979AA389A389A19AA1009769F72D
:101B200014C06BA17CA18DA19EA10E944900DC0183
:101B3000CB019AA389A389A19AA19E8F8D8F8D8DA8
:101B40009E8D0197F1F79E8F8D8F8CE00E949B0EEA
:101B500080E090E0A0E0B0E4898F9A8FAB8FBC8FDB
:101B6000698D7A8D8B8D9C8D20E030E04AEF54E4B6
:101B70000E941F02DC01CB018D8B9E8BAF8BB88F37
:101B80006D897E898F89988D20E030E040E85FE3A1
:101B90000E94790388232CF481E090E09C8B8B8B4E
:101BA0003FC06D897E898F89988D20E03FEF4FE798
:101BB00057E40E94190318164CF5698D7A8D8B8DA8
:101BC0009C8D20E030E040E251E40E941F02DC01E5
:101BD000CB01BC01CD010E944900DC01CB019C8BF3
:101BE0008B8B0FC088EC90E09A8B898B89899A89BE
:101BF0000197F1F79A8B898B8B899C8901979C8B34
:101C00008B8B8B899C89009769F714C06D897E89BD
:101C10008F89988D0E944900DC01CB019C8B8B8BB6
:101C20008B899C89988B8F878F8598890197F1F78D
:101C3000988B8F8781E00E949B0E80E090E0A0E06F
:101C4000B0E48B879C87AD87BE876B857C858D854F
:101C50009E8520E030E04AEF54E40E941F02DC0140
:101C6000CB018F839887A987BA876F81788589850B
:101C70009A8520E030E040E85FE30E947903882302
:101C80002CF481E090E09E838D833FC06F81788546
:101C900089859A8520E03FEF4FE757E40E941903BA
:101CA00018164CF56B857C858D859E8520E030E08F
:101CB00040E251E40E941F02DC01CB01BC01CD01D6
:101CC0000E944900DC01CB019E838D830FC088EC0C
:101CD00090E09C838B838B819C810197F1F79C839F
:101CE0008B838D819E8101979E838D838D819E81C3
:101CF000009769F714C06F81788589859A850E945D
:101D00004900DC01CB019E838D838D819E819A8366
:101D1000898389819A810197F1F79A83898386E083
:101D20000E949B0EE8960FB6F894DEBF0FBECDBFA3
:101D3000CF91DF910895DF93CF93CDB7DEB72F9783
:101D40000FB6F894DEBF0FBECDBF8F8780E062E094
:101D500040E00E94480681E06F850E94580880E0BC
:101D600061E041E00E94480680E090E0A0E8BFE327
:101D70008B879C87AD87BE876B857C858D859E858F
:101D800020E030E04AEF54E40E941F02DC01CB0166
:101D90008F839887A987BA876F81788589859A8587
:101DA00020E030E040E85FE30E94790388232CF4D0
:101DB00081E090E09E838D833FC06F817885898527
:101DC0009A8520E03FEF4FE757E40E941903181669
:101DD0004CF56B857C858D859E8520E030E040E26A
:101DE00051E40E941F02DC01CB01BC01CD010E9425
:101DF0004900DC01CB019E838D830FC088EC90E00D
:101E00009C838B838B819C810197F1F79C838B83CF
:101E10008D819E8101979E838D838D819E81009708
:101E200069F714C06F81788589859A850E94490079
:101E3000DC01CB019E838D838D819E819A83898372
:101E400089819A810197F1F79A83898380E061E023
:101E500040E00E9448062F960FB6F894DEBF0FBEF2
:101E6000CDBFCF91DF910895DF93CF93CDB7DEB78C
:101E70002F970FB6F894DEBF0FBECDBF8F8780E0DF
:101E800062E041E00E94480681E06F850E945808A8
:101E900080E061E041E00E94480680E090E0A0E838
:101EA000BFE38B879C87AD87BE876B857C858D85DF
:101EB0009E8520E030E04AEF54E40E941F02DC01DE
:101EC000CB018F839887A987BA876F8178858985A9
:101ED0009A8520E030E040E85FE30E9479038823A0
:101EE0002CF481E090E09E838D833FC06F817885E4
:101EF00089859A8520E03FEF4FE757E40E94190358
:101F000018164CF56B857C858D859E8520E030E02C
:101F100040E251E40E941F02DC01CB01BC01CD0173
:101F20000E944900DC01CB019E838D830FC088ECA9
:101F300090E09C838B838B819C810197F1F79C833C
:101F40008B838D819E8101979E838D838D819E8160
:101F5000009769F714C06F81788589859A850E94FA
:101F60004900DC01CB019E838D838D819E819A8304
:101F7000898389819A810197F1F79A83898380E027
:101F800061E040E00E9448062F960FB6F894DEBF4D
:101F90000FBECDBFCF91DF910895DF93CF9300D0D7
:101FA0000F92CDB7DEB79B838A8319820EC08981D9
:101FB000282F30E08A819B81FC01E20FF31F808192
:101FC0000E94340F89818F5F89838981282F30E0B7
:101FD0008A819B81FC01E20FF31F8081882339F7FE
:101FE0000F900F900F90CF91DF910895EF92FF9295
:101FF0000F931F93DF93CF93CDB7DEB728970FB61C
:10200000F894DEBF0FBECDBF6D837E838F8398872C
:1020100081E090E0A0E0B0E089839A83AB83BC8349
:1020200036C089819A81AB81BC812AE030E040E0F2
:1020300050E0BC01CD010E94E51F7B018C018D8128
:102040009E81AF81B8852AE030E040E050E0BC01DD
:10205000CD010E940420DC01CB018E0D9F1DA01F2D
:10206000B11F89839A83AB83BC838D819E81AF81AD
:10207000B8852AE030E040E050E0BC01CD010E948C
:102080000420DA01C9018D839E83AF83B8878D81D7
:102090009E81AF81B8850097A105B10511F68981B0
:1020A0009A81AB81BC812AE030E040E050E0BC0185
:1020B000CD010E940420DC01CB01805D0E94340F21
:1020C00089819A81AB81BC812AE030E040E050E018
:1020D000BC01CD010E940420DA01C90189839A83E1
:1020E000AB83BC8389819A81AB81BC8181309105AE
:1020F000A105B105A1F628960FB6F894DEBF0FBE74
:10210000CDBFCF91DF911F910F91FF90EF90089578
:10211000DF93CF9300D00F92CDB7DEB78A836B8366
:102120008A818230C8F48B818031B0F48A81882F13
:1021300090E0002496958795079496958795079447
:10214000982F802D982F8B81890F898389818068B2
:10215000898389810E949B0E0F900F900F90CF91E1
:10216000DF910895DF93CF93CDB7DEB727970FB6F2
:10217000F894DEBF0FBECDBF9C838B836D834E83EF
:102180002F838D81882F90E0880F991F880F991FCA
:10219000880F991F8A838A8180648A838A810E943A
:1021A0009B0E19820EC08981282F30E08B819C8183
:1021B000FC01E20FF31F80810E94340F89818F5F41
:1021C00089838981883078F38E816F810E9488109D
:1021D0008D810E94340F27960FB6F894DEBF0FBE94
:1021E000CDBFCF91DF910895DF93CF93CDB7DEB709
:1021F00080E060E00E94881080E690E00E94CD0FB1
:1022000081E060E00E94881082E790E00E94CD0F9C
:10221000CF91DF910895DF93CF93CDB7DEB780E004
:1022200060E00E94881081E890E00E94CD0F81E07C
:1022300060E00E9488108FE890E00E94CD0FCF915F
:10224000DF910895DF93CF93CDB7DEB783E291E0BE
:1022500064E041E028E00E94B2108BE291E063E08C
:1022600041E027E00E94B21083E391E062E041E0A8
:1022700026E00E94B2108BE391E061E041E025E0AE
:102280000E94B210CF91DF910895DF93CF93CDB725
:10229000DEB78FE990E00E94CD0F0E942211CF910E
:1022A000DF910895DF93CF93CDB7DEB7E0E2F0E0A2
:1022B00082E08083A1E2B0E0E1E2F0E080818E7F05
:1022C0008C93A1E2B0E0E1E2F0E080818D7F8C931D
:1022D000E2E2F0E084E68083A6E5B0E0E6E5F0E047
:1022E000808184608C93CF91DF910895DF93CF93A9
:1022F000CDB7DEB7A6E5B0E0E6E5F0E0808180642A
:102300008C93E2E2F0E088E28083A6E5B0E0E6E5C7
:10231000F0E0808184608C93CF91DF910895DF930A
:10232000CF930F92CDB7DEB71982A6E5B0E0E6E510
:10233000F0E0808180628C93A6E5B0E0E6E5F0E015
:10234000808180688C93A6E5B0E0E6E5F0E08081CE
:1023500084608C93E6E5F0E080818823DCF7E1E29D
:10236000F0E08081882F90E0887F90708830910520
:1023700011F081E0898389810F90CF91DF910895D9
:10238000DF93CF930F92CDB7DEB71982A6E5B0E009
:10239000E6E5F0E0808180628C93A6E5B0E0E6E5BA
:1023A000F0E0808180688C93A6E5B0E0E6E5F0E09F
:1023B000808184608C93E6E5F0E080818823DCF7FF
:1023C000E1E2F0E08081882F90E0887F907080319A
:1023D000910511F082E0898389810F90CF91DF917F
:1023E0000895DF93CF9300D0CDB7DEB78A831982EB
:1023F000A3E2B0E0E3E2F0E080818E7F8C93E3E241
:10240000F0E08A818083A6E5B0E0E6E5F0E0808137
:102410008F7D8C93A6E5B0E0E6E5F0E080818068F2
:102420008C93A6E5B0E0E6E5F0E0808184608C93D3
:10243000E6E5F0E080818823DCF7E1E2F0E08081EE
:10244000882F90E0887F90708032910511F483E0AE
:10245000898389810F900F90CF91DF910895DF9349
:10246000CF9300D0CDB7DEB78A831982E3E2F0E0E4
:102470008A8181608083A6E5B0E0E6E5F0E08081B6
:102480008F7D8C93A6E5B0E0E6E5F0E08081806882
:102490008C93A6E5B0E0E6E5F0E0808184608C9363
:1024A000E6E5F0E080818823DCF7E1E2F0E080817E
:1024B000882F90E0887F90708833910511F484E034
:1024C000898389810F900F90CF91DF910895DF93D9
:1024D000CF9300D0CDB7DEB78A831982E3E2F0E074
:1024E0008A818083A6E5B0E0E6E5F0E0808180683F
:1024F0008C93A6E5B0E0E6E5F0E0808184608C9303
:10250000E6E5F0E080818823DCF7E1E2F0E080811D
:10251000882F90E0887F90708033910511F485E0DA
:10252000898389810F900F90CF91DF910895DF9378
:10253000CF9300D00F92CDB7DEB79B838A831982E9
:10254000A6E5B0E0E6E5F0E0808184608C93A6E546
:10255000B0E0E6E5F0E0808180688C93E6E5F0E0AD
:1025600080818823DCF7E1E2F0E08081882F90E031
:10257000887F90708835910511F486E08983E3E2C5
:10258000F0E08081EA81FB81808389810F900F9048
:102590000F90CF91DF910895DF93CF93CDB7DEB742
:1025A000A6E5B0E0E6E5F0E0808180618C93A6E5E9
:1025B000B0E0E6E5F0E0808180688C93A6E5B0E0CD
:1025C000E6E5F0E0808184608C93CF91DF910895FF
:1025D000DF93CF93CDB7DEB7AFE4B0E0EFE4F0E048
:1025E00080818E7F8C93AFE4B0E0EFE4F0E08081F7
:1025F00082608C93AEE4B0E0EEE4F0E0808188602D
:102600008C93AEE4B0E0EEE4F0E0808180618C93E6
:10261000AFE4B0E0EFE4F0E080818F7B8C93AFE437
:10262000B0E0EFE4F0E0808180688C93AFE4B0E04C
:10263000EFE4F0E080818F7E8C93AFE4B0E0EFE4D4
:10264000F0E0808180628C93AEE4B0E0EEE4F0E0F4
:102650008081887F8C93A9E5B0E0E9E5F0E0808196
:102660008B7F8C93A9E5B0E0E9E5F0E08081877F7E
:102670008C93A9E5B0E0E9E5F0E080818F7E8C9352
:10268000A9E5B0E0E9E5F0E080818F7D8C93A8E5D5
:10269000B0E0E8E5F0E0808184608C93A8E5B0E0EC
:1026A000E8E5F0E0808188608C93A8E5B0E0E8E59B
:1026B000F0E0808180618C93A8E5B0E0E8E5F0E08F
:1026C000808180628C93EAE4F0E01082EBE4F0E039
:1026D0001082E8E4F0E01082E9E4F0E01082ECE43B
:1026E000F0E01082EDE4F0E01082E6E4F0E0108229
:1026F000E7E4F0E01082CF91DF910895DF93CF936C
:102700000F92CDB7DEB78983AEE4B0E0EEE4F0E03F
:102710008081887F8C93AEE4B0E0EEE4F0E08081CD
:10272000982F89818770892B8C930F90CF91DF919F
:102730000895DF93CF93CDB7DEB7AEE4B0E0EEE41B
:10274000F0E08081887F8C93CF91DF910895DF93B3
:10275000CF93CDB7DEB7A9E5B0E0E9E5F0E0808141
:1027600084608C93CF91DF910895DF93CF93CDB7A1
:10277000DEB7A9E5B0E0E9E5F0E080818B7F8C93DE
:10278000CF91DF910895DF93CF93CDB7DEB7A9E561
:10279000B0E0E9E5F0E0808180618C93CF91DF913A
:1027A0000895DF93CF93CDB7DEB7A9E5B0E0E9E5B3
:1027B000F0E080818F7E8C93CF91DF910895DF933D
:1027C000CF93CDB7DEB7A9E5B0E0E9E5F0E08081D1
:1027D00088608C93CF91DF910895DF93CF93CDB72D
:1027E000DEB7A9E5B0E0E9E5F0E08081877F8C9372
:1027F000CF91DF910895DF93CF93CDB7DEB7A9E5F1
:10280000B0E0E9E5F0E0808180628C93CF91DF91C8
:102810000895DF93CF93CDB7DEB7A9E5B0E0E9E542
:10282000F0E080818F7D8C93CF91DF910895DF93CD
:10283000CF9300D0CDB7DEB79A83898389819A81FF
:1028400090936501809364010F900F90CF91DF9179
:102850000895DF93CF9300D0CDB7DEB79A838983F5
:1028600089819A8190936701809366010F900F9000
:10287000CF91DF910895DF93CF9300D0CDB7DEB72E
:102880009A83898389819A81909361018093600101
:102890000F900F90CF91DF910895DF93CF9300D0E9
:1028A000CDB7DEB79A83898389819A81909363013A
:1028B000809362010F900F90CF91DF910895DF9385
:1028C000CF9300D0CDB7DEB79A838983ECE4F0E0F4
:1028D00089818083EDE4F0E089819A81892F9927AD
:1028E00080830F900F90CF91DF910895DF93CF9366
:1028F00000D0CDB7DEB79A838983EAE4F0E089811E
:102900008083EBE4F0E089819A81892F9927808385
:102910000F900F90CF91DF910895DF93CF9300D068
:10292000CDB7DEB79A838983E8E4F0E089818083BC
:10293000E9E4F0E089819A81892F992780830F90BB
:102940000F90CF91DF910895DF93CF9300D0CDB753
:10295000DEB79A838983E6E4F0E089819A819183E6
:1029600080830F900F90CF91DF910895DF93CF93E5
:1029700000D0CDB7DEB7EDE4F0E08081882F90E0A5
:102980009A83898389819A81982F88279A8389835A
:10299000ECE4F0E08081282F30E089819A81822B5D
:1029A000932B9A83898389819A810F900F90CF917D
:1029B000DF9108951F920F920FB60F9211242F935B
:1029C0003F934F935F936F937F938F939F93AF93B7
:1029D000BF93EF93FF93DF93CF93CDB7DEB7E09133
:1029E0006401F09165010995CF91DF91FF91EF911D
:1029F000BF91AF919F918F917F916F915F914F9117
:102A00003F912F910F900FBE0F901F9018951F921E
:102A10000F920FB60F9211242F933F934F935F9312
:102A20006F937F938F939F93AF93BF93EF93FF9396
:102A3000DF93CF93CDB7DEB7E0916601F0916701E8
:102A40000995CF91DF91FF91EF91BF91AF919F9148
:102A50008F917F916F915F914F913F912F910F9047
:102A60000FBE0F901F9018951F920F920FB60F92E6
:102A700011242F933F934F935F936F937F938F9383
:102A80009F93AF93BF93EF93FF93DF93CF93CDB714
:102A9000DEB7E0916001F09161010995CF91DF917E
:102AA000FF91EF91BF91AF919F918F917F916F9126
:102AB0005F914F913F912F910F900FBE0F901F90FC
:102AC00018951F920F920FB60F9211242F933F93D8
:102AD0004F935F936F937F938F939F93AF93BF9326
:102AE000EF93FF93DF93CF93CDB7DEB7E091620111
:102AF000F09163010995CF91DF91FF91EF91BF9123
:102B0000AF919F918F917F916F915F914F913F9185
:102B10002F910F900FBE0F901F901895DF93CF93BA
:102B2000CDB7DEB7E6E4F0E080819181CF91DF910F
:102B30000895DF93CF93CDB7DEB7AEE4B0E0EEE417
:102B4000F0E0808180648C93CF91DF910895DF93D2
:102B5000CF93CDB7DEB7AEE4B0E0EEE4F0E0808135
:102B60008F7B8C93CF91DF910895DF93CF930F925A
:102B7000CDB7DEB71982AAE2B0E0EAE2F0E08081E8
:102B800080688C93AAE2B0E0EAE2F0E080818062A3
:102B90008C93AAE2B0E0EAE2F0E080818B7F8C9334
:102BA0008981806889838981826089838981846041
:102BB000898389818F7B898389818F7E89838981BC
:102BC0008F7D89838981877F8983E0E4F0E0898133
:102BD0008083E9E2F0E083E38083AAE2B0E0EAE206
:102BE000F0E0808180618C93AAE2B0E0EAE2F0E05C
:102BF000808188608C930F90CF91DF910895DF934F
:102C0000CF930F92CDB7DEB78983ECE2F0E08981F4
:102C100080830F90CF91DF910895DF93CF93CDB74D
:102C2000DEB7ECE2F0E08081CF91DF9108951F9252
:102C30000F920FB60F9211242F933F934F935F93F0
:102C40006F937F938F939F93AF93BF93EF93FF9374
:102C5000DF93CF93CDB7DEB7E0915B01F0915C01DC
:102C60000995CF91DF91FF91EF91BF91AF919F9126
:102C70008F917F916F915F914F913F912F910F9025
:102C80000FBE0F901F9018951F920F920FB60F92C4
:102C900011242F933F934F935F936F937F938F9361
:102CA0009F93AF93BF93EF93FF93DF93CF93CDB7F2
:102CB000DEB7E0915901F0915A010995CF91DF916A
:102CC000FF91EF91BF91AF919F918F917F916F9104
:102CD0005F914F913F912F910F900FBE0F901F90DA
:102CE00018951F920F920FB60F921124DF93CF9376
:102CF000CDB7DEB7CF91DF910F900FBE0F901F9031
:102D00001895DF93CF9300D0CDB7DEB79A83898330
:102D100089819A8190935A01809359010F900F9065
:102D2000CF91DF910895DF93CF9300D0CDB7DEB779
:102D30009A83898389819A8190935C0180935B0156
:102D40000F900F90CF91DF910895DF93CF93CDB780
:102D5000DEB7AAE2B0E0EAE2F0E080818F7D8C93FA
:102D6000CF91DF910895DF93CF93CDB7DEB7AAE27D
:102D7000B0E0EAE2F0E0808180628C93CF91DF9155
:102D800008950F931F93DF93CF93CDB7DEB7CE5740
:102D9000D0400FB6F894DEBF0FBECDBF82E06FE02B
:102DA0000E94E00882E060EF0E94580880E060E046
:102DB00040E00E94500780E063E041E00E9450073D
:102DC00080E064E041E00E94500780E065E041E07F
:102DD0000E94500780E066E040E00E94500783E0D8
:102DE00064E041E00E94500783E065E041E00E941A
:102DF000500783E066E041E00E94500783E067E00F
:102E000041E00E9450070E94A60C0E94A3050E9468
:102E1000E81280E29EE40E94A41482E00E947E13E5
:102E200083E061E040E00E94500783E060E041E021
:102E30000E9450070E94B51588E09EE10E9481160D
:102E400085E19EE10E9493160E949D0B80ED97E024
:102E50000E948D140E9452110E944511FE01E558F6
:102E6000FF4F80E090E8ABEBB4E480839183A283D2
:102E7000B3838E0109581F4FFE01E558FF4F608153
:102E800071818281938120E030E04AEF54E40E9416
:102E90001F02DC01CB01F80180839183A283B383FD
:102EA000FE01E958FF4F608171818281938120E0AA
:102EB00030E040E85FE30E947903882344F4FE0198
:102EC000EB58FF4F81E090E09183808364C0FE0166
:102ED000E958FF4F608171818281938120E03FEF4B
:102EE0004FE757E40E94190318160CF043C0FE0187
:102EF000E558FF4F608171818281938120E030E04D
:102F000040E251E40E941F02DC01CB018E010B580C
:102F10001F4FBC01CD010E944900DC01CB01F8012B
:102F2000918380831FC0FE01ED58FF4F88EC90E035
:102F300091838083FE01ED58FF4F8081918101973D
:102F4000F1F7FE01ED58FF4F91838083DE01AB580E
:102F5000BF4FFE01EB58FF4F808191810197119681
:102F60009C938E93FE01EB58FF4F808191810097D7
:102F7000D1F627C08E010B581F4FFE01E958FF4FB5
:102F800060817181828193810E944900DC01CB01C3
:102F9000F80191838083DE01AF58BF4FFE01EB58EB
:102FA000FF4F808191818D939C93FE01EF58FF4FDD
:102FB000808191810197F1F7FE01EF58FF4F9183D6
:102FC000808381E00E949B0E8EE56FEF0E94090BCB
:102FD00020E731E08EE5B9010E94E70A8091700197
:102FE0008F3F09F0E9C480EB90E00E94CD0F109272
:102FF00079018AC10E94B90B809380018091800180
:103000008F3FC1F3809180010E94340FFE01E3598C
:10301000FF4F80E090E0AAEFB3E480839183A28326
:10302000B3838E0107591F4FFE01E359FF4F6081A3
:1030300071818281938120E030E04AEF54E40E9464
:103040001F02DC01CB01F80180839183A283B3834B
:10305000FE01E759FF4F608171818281938120E0F9
:1030600030E040E85FE30E947903882344F4FE01E6
:10307000E959FF4F81E090E09183808364C0FE01B5
:10308000E759FF4F608171818281938120E03FEF9A
:103090004FE757E40E94190318160CF043C0FE01D5
:1030A000E359FF4F608171818281938120E030E09C
:1030B00040E251E40E941F02DC01CB018E0109595C
:1030C0001F4FBC01CD010E944900DC01CB01F8017A
:1030D000918380831FC0FE01EB59FF4F88EC90E085
:1030E00091838083FE01EB59FF4F8081918101978D
:1030F000F1F7FE01EB59FF4F91838083DE01A9595F
:10310000BF4FFE01E959FF4F8081918101971196D0
:103110009C938E93FE01E959FF4F80819181009726
:10312000D1F627C08E0109591F4FFE01E759FF4F05
:1031300060817181828193810E944900DC01CB0111
:10314000F80191838083DE01AD59BF4FFE01E9593B
:10315000FF4F808191818D939C93FE01ED59FF4F2C
:10316000808191810197F1F7FE01ED59FF4F918325
:10317000808380917901982F955F80E0692F0E946C
:1031800088108AE20E94340FFE01E15AFF4F80E06E
:1031900090E0AAEFB3E480839183A283B3838E018E
:1031A000055A1F4FFE01E15AFF4F608171818281F4
:1031B000938120E030E04AEF54E40E941F02DC01DA
:1031C000CB01F80180839183A283B383FE01E55A8A
:1031D000FF4F608171818281938120E030E040E87F
:1031E0005FE30E947903882344F4FE01E75AFF4F0E
:1031F00081E090E09183808364C0FE01E55AFF4F37
:10320000608171818281938120E03FEF4FE757E435
:103210000E94190318160CF043C0FE01E15AFF4F3B
:10322000608171818281938120E030E040E251E44D
:103230000E941F02DC01CB018E01075A1F4FBC0107
:10324000CD010E944900DC01CB01F801918380830C
:103250001FC0FE01E95AFF4F88EC90E09183808304
:10326000FE01E95AFF4F808191810197F1F7FE013C
:10327000E95AFF4F91838083DE01A75ABF4FFE01B9
:10328000E75AFF4F80819181019711969C938E930D
:10329000FE01E75AFF4F808191810097D1F627C048
:1032A0008E01075A1F4FFE01E55AFF4F6081718161
:1032B000828193810E944900DC01CB01F801918356
:1032C0008083DE01AB5ABF4FFE01E75AFF4F80817A
:1032D00091818D939C93FE01EB5AFF4F80819181E8
:1032E0000197F1F7FE01EB5AFF4F918380838091A4
:1032F00079018F5C90918001692F0E94090B809168
:1033000079018F5F8093790180917901843008F48D
:1033100071CE8EE560E00E94090B4EC381E00E94F1
:103320009B0E8CEB90E00E94CD0F109279015EC154
:103330000E94B90B80938001809180018F3FC1F37F
:10334000809180010E94340FFE01EF5AFF4F80E010
:1033500090E0AAEFB3E480839183A283B3838E01CC
:10336000035B1F4FFE01EF5AFF4F60817181828125
:10337000938120E030E04AEF54E40E941F02DC0118
:10338000CB01F80180839183A283B383FE01E35BC9
:10339000FF4F608171818281938120E030E040E8BD
:1033A0005FE30E947903882344F4FE01E55BFF4F4D
:1033B00081E090E09183808364C0FE01E35BFF4F76
:1033C000608171818281938120E03FEF4FE757E474
:1033D0000E94190318160CF043C0FE01EF5AFF4F6C
:1033E000608171818281938120E030E040E251E48C
:1033F0000E941F02DC01CB018E01055B1F4FBC0147
:10340000CD010E944900DC01CB01F801918380834A
:103410001FC0FE01E75BFF4F88EC90E09183808343
:10342000FE01E75BFF4F808191810197F1F7FE017B
:10343000E75BFF4F91838083DE01A55BBF4FFE01F9
:10344000E55BFF4F80819181019711969C938E934C
:10345000FE01E55BFF4F808191810097D1F627C087
:103460008E01055B1F4FFE01E35BFF4F60817181A1
:10347000828193810E944900DC01CB01F801918394
:103480008083DE01A95BBF4FFE01E55BFF4F8081BA
:1034900091818D939C93FE01E95BFF4F8081918127
:1034A0000197F1F7FE01E95BFF4F918380838091E3
:1034B0007901982F955F80E0692F0E9488108AE239
:1034C0000E94340FFE01ED5BFF4F80E090E0AAEF19
:1034D000B3E480839183A283B3838E01015C1F4F89
:1034E000FE01ED5BFF4F608171818281938120E05D
:1034F00030E04AEF54E40E941F02DC01CB01F801E6
:1035000080839183A283B383FE01FF9660817181E2
:103510008281938120E030E040E85FE30E947903FC
:1035200088232CF481E090E09EAF8DAF46C0FE0171
:10353000FF96608171818281938120E03FEF4FE7A8
:1035400057E40E941903181664F5FE01ED5BFF4F66
:10355000608171818281938120E030E040E251E41A
:103560000E941F02DC01CB01BC01CD010E94490079
:10357000DC01CB019EAF8DAF0FC088EC90E09CAF1B
:103580008BAF8BAD9CAD0197F1F79CAF8BAF8DAD41
:103590009EAD01979EAF8DAF8DAD9EAD009769F743
:1035A00016C0FE01FF9660817181828193810E9425
:1035B0004900DC01CB019EAF8DAF8DAD9EAD9AAFC2
:1035C00089AF89AD9AAD0197F1F79AAF89AF809134
:1035D0007901882F90E020918001FC01E859FE4F8D
:1035E0002083809179018F5F8093790180917901A7
:1035F000843008F49DCE1092790117C08091790132
:103600008F5C28E731E0B9010E94E70A80917901D7
:10361000882F90E020917801FC01E55DFE4F20832A
:10362000809179018F5F8093790180917901843055
:1036300028F39091680180912B019817B1F4909133
:10364000690180912C01981781F490916A01809111
:103650002D01981751F490916B0180912E019817CC
:1036600021F481E080935E01A7C1809144018150E3
:103670008093440181E00E949B0E80E060E00E9404
:10368000881089EC90E00E94CD0F81E060E00E94FC
:10369000881080914401882309F00EC188ED90E0E4
:1036A0000E94CD0F80E30E94340F80E090E0AAE7F3
:1036B000B4E48DAB9EABAFABB8AF6DA97EA98FA9BB
:1036C00098AD20E030E04AEF54E40E941F02DC0194
:1036D000CB0189AB9AABABABBCAB69A97AA98BA97F
:1036E0009CA920E030E040E85FE30E947903882352
:1036F0002CF481E090E098AB8FA73FC069A97AA92C
:103700008BA99CA920E03FEF4FE757E40E941903E3
:1037100018164CF56DA97EA98FA998AD20E030E070
:1037200040E251E40E941F02DC01CB01BC01CD014B
:103730000E944900DC01CB0198AB8FA70FC088EC39
:1037400090E09EA78DA78DA59EA50197F1F79EA756
:103750008DA78FA598A9019798AB8FA78FA598A93A
:10376000009769F714C069A97AA98BA99CA90E943E
:103770004900DC01CB0198AB8FA78FA598A99CA726
:103780008BA78BA59CA50197F1F79CA78BA781E040
:103790000E949B0E80E060E00E94881085EE90E021
:1037A0000E94CD0F81E060E00E9488108CEE90E0D6
:1037B0000E94CD0F80E065E041E00E94480680E075
:1037C00090E4ACE1B6E48FA398A7A9A7BAA76FA12C
:1037D00078A589A59AA520E030E04AEF54E40E943C
:1037E0001F02DC01CB018BA39CA3ADA3BEA36BA1E5
:1037F0007CA18DA19EA120E030E040E85FE30E9423
:10380000790388232CF481E090E09AA389A33FC038
:103810006BA17CA18DA19EA120E03FEF4FE757E473
:103820000E94190318164CF56FA178A589A59AA5D1
:1038300020E030E040E251E40E941F02DC01CB01B5
:10384000BC01CD010E944900DC01CB019AA389A3F0
:103850000FC088EC90E098A38F8F8F8D98A101976F
:10386000F1F798A38F8F89A19AA101979AA389A3B1
:1038700089A19AA1009769F714C06BA17CA18DA1C1
:103880009EA10E944900DC01CB019AA389A389A1D2
:103890009AA19E8F8D8F8D8D9E8D0197F1F79E8FB2
:1038A0008D8F80E065E040E00E94480610925E0146
:1038B00083E0809344010EC088ED90E00E94CD0F1C
:1038C00080914401882F90E0A0E0B0E0BC01CD01E0
:1038D0000E94F60F80E090E0AAE7B4E4898F9A8F07
:1038E000AB8FBC8F698D7A8D8B8D9C8D20E030E005
:1038F0004AEF54E40E941F02DC01CB018D8B9E8BAA
:10390000AF8BB88F6D897E898F89988D20E030E0EC
:1039100040E85FE30E94790388232CF481E090E083
:103920009C8B8B8B3FC06D897E898F89988D20E021
:103930003FEF4FE757E40E94190318164CF5698DC5
:103940007A8D8B8D9C8D20E030E040E251E40E9426
:103950001F02DC01CB01BC01CD010E944900DC014A
:10396000CB019C8B8B8B0FC088EC90E09A8B898B62
:1039700089899A890197F1F79A8B898B8B899C8920
:1039800001979C8B8B8B8B899C89009769F714C05E
:103990006D897E898F89988D0E944900DC01CB0159
:1039A0009C8B8B8B8B899C89988B8F878F85988933
:1039B0000197F1F7988B8F8780915E01882309F436
:1039C000ADCC80915E01813009F08BC081E00E9416
:1039D0009B0E80E060E00E9488108BEF90E00E94D8
:1039E000CD0F81E060E00E9488108CE091E00E94A1
:1039F000CD0F84EF91E00E948D1480E090E0AAE763
:103A0000B4E48B879C87AD87BE876B857C858D856D
:103A10009E8520E030E04AEF54E40E941F02DC0162
:103A2000CB018F839887A987BA876F81788589852D
:103A30009A8520E030E040E85FE30E947903882324
:103A40002CF481E090E09E838D833FC06F81788568
:103A500089859A8520E03FEF4FE757E40E941903DC
:103A600018164CF56B857C858D859E8520E030E0B1
:103A700040E251E40E941F02DC01CB01BC01CD01F8
:103A80000E944900DC01CB019E838D830FC088EC2E
:103A900090E09C838B838B819C810197F1F79C83C1
:103AA0008B838D819E8101979E838D838D819E81E5
:103AB000009769F714C06F81788589859A850E947F
:103AC0004900DC01CB019E838D838D819E819A8389
:103AD000898389819A810197F1F79A8389830E946A
:103AE000B61D80915E018130E1F70E94B61D81E034
:103AF0000E949B0E0E94F4100E94B90B80938001DB
:103B0000809180018F3FC1F3809180018B3261F001
:103B1000809180018F3241F080918001883721F0BF
:103B2000809180018D32E9F681E00E949B0E0E9417
:103B30000B1183E080935E018091800180935F018F
:103B400088E09EE10E94811685E19EE10E94931625
:103B5000C8CFDF93CF93CDB7DEB70E94FE05909319
:103B60006F0180936E01CF91DF910895DF93CF9322
:103B7000CDB7DEB780E00E94E30589EA9DE10E94AF
:103B8000090680E00E94B90590936F0180936E0151
:103B900080916E0190916F01CC01A0E0B0E028E827
:103BA00033E140E050E0BC01CD010E94E51FDC01A3
:103BB000CB01072E7AE0B695A795979587957A95CC
:103BC000D1F7702D80937A0190937B01A0937C01B3
:103BD000B0937D0180917A0190917B01A0917C014D
:103BE000B0917D01813D27E0920720E0A20720E00F
:103BF000B20730F083E066E041E00E94480605C06D
:103C000083E066E040E00E944806CF91DF9108958E
:103C1000DF93CF93CDB7DEB7809143010E94FF15AC
:103C20000E94A516CF91DF910895DF93CF93CDB772
:103C3000DEB7AA970FB6F894DEBF0FBECDBF0E94C5
:103C40000D168093710180917101813409F097C044
:103C50000E94B31681E40E94FF1580915F018B32B0
:103C600031F480E063E041E00E94480613C0809197
:103C70005F018D3231F480E064E041E00E9448064B
:103C800009C080915F018F3229F483E065E041E053
:103C90000E94480680E090E0AAE7B4E48FA398A7CA
:103CA000A9A7BAA76FA178A589A59AA520E030E0B9
:103CB0004AEF54E40E941F02DC01CB018BA39CA3BA
:103CC000ADA3BEA36BA17CA18DA19EA120E030E09D
:103CD00040E85FE30E94790388232CF481E090E0C0
:103CE0009AA389A33FC06BA17CA18DA19EA120E0D6
:103CF0003FEF4FE757E40E94190318164CF56FA1E8
:103D000078A589A59AA520E030E040E251E40E9420
:103D10001F02DC01CB01BC01CD010E944900DC0186
:103D2000CB019AA389A30FC088EC90E098A38F8F52
:103D30008F8D98A10197F1F798A38F8F89A19AA1F0
:103D400001979AA389A389A19AA1009769F714C042
:103D50006BA17CA18DA19EA10E944900DC01CB0139
:103D60009AA389A389A19AA19E8F8D8F8D8D9E8DF7
:103D70000197F1F79E8F8D8F0E94A5161DC180912E
:103D80007101823409F097C00E94B31682E40E9448
:103D9000FF1580915F018B3231F480E063E040E0F9
:103DA0000E94480613C080915F018D3231F480E09B
:103DB00064E040E00E94480609C080915F018F32B4
:103DC00029F483E065E040E00E94480680E090E04E
:103DD000AAE7B4E4898F9A8FAB8FBC8F698D7A8DF7
:103DE0008B8D9C8D20E030E04AEF54E40E941F024E
:103DF000DC01CB018D8B9E8BAF8BB88F6D897E895B
:103E00008F89988D20E030E040E85FE30E947903DD
:103E100088232CF481E090E09C8B8B8B3FC06D89D4
:103E20007E898F89988D20E03FEF4FE757E40E940D
:103E3000190318164CF5698D7A8D8B8D9C8D20E0B9
:103E400030E040E251E40E941F02DC01CB01BC01E2
:103E5000CD010E944900DC01CB019C8B8B8B0FC0F4
:103E600088EC90E09A8B898B89899A890197F1F780
:103E70009A8B898B8B899C8901979C8B8B8B8B89E7
:103E80009C89009769F714C06D897E898F89988D08
:103E90000E944900DC01CB019C8B8B8B8B899C8918
:103EA000988B8F878F8598890197F1F7988B8F87EB
:103EB0000E94A51681C080917101833409F07CC0F5
:103EC0000E94B31683E40E94FF1581E080935E0197
:103ED00080E090E0AAE7B4E48B879C87AD87BE873B
:103EE0006B857C858D859E8520E030E04AEF54E42B
:103EF0000E941F02DC01CB018F839887A987BA87B4
:103F00006F81788589859A8520E030E040E85FE31D
:103F10000E94790388232CF481E090E09E838D83B6
:103F20003FC06F81788589859A8520E03FEF4FE714
:103F300057E40E94190318164CF56B857C858D8516
:103F40009E8520E030E040E251E40E941F02DC0147
:103F5000CB01BC01CD010E944900DC01CB019E8355
:103F60008D830FC088EC90E09C838B838B819C8138
:103F70000197F1F79C838B838D819E8101979E83AE
:103F80008D838D819E81009769F714C06F8178853C
:103F900089859A850E944900DC01CB019E838D832F
:103FA0008D819E819A83898389819A810197F1F716
:103FB0009A8389830E94A516AA960FB6F894DEBF4D
:103FC0000FBECDBFCF91DF910895629FD001739F47
:103FD000F001829FE00DF11D649FE00DF11D929FA5
:103FE000F00D839FF00D749FF00D659FF00D9927E4
:103FF000729FB00DE11DF91F639FB00DE11DF91F08
:10400000BD01CF0111240895A1E21A2EAA1BBB1BEA
:10401000FD010DC0AA1FBB1FEE1FFF1FA217B30794
:10402000E407F50720F0A21BB30BE40BF50B661FAA
:10403000771F881F991F1A9469F76095709580956E
:1040400090959B01AC01BD01CF0108952F923F9245
:104050004F925F926F927F928F929F92AF92BF9298
:10406000CF92DF92EF92FF920F931F93CF93DF9344
:10407000CDB7DEB7CA1BDB0B0FB6F894DEBF0FBEA1
:10408000CDBF09942A88398848885F846E847D84EE
:104090008C849B84AA84B984C884DF80EE80FD80F0
:1040A0000C811B81AA81B981CE0FD11D0FB6F89466
:0E40B000DEBF0FBECDBFED010895F894FFCF27
:1040BE00312D3E524F4F4D3120322D3E524F4F4DEE
:1040CE002000332D3E54562020202020202020205A
:1040DE0000412D3E4F4E20422D3E4F46462000437E
:1040EE002D3E52455420202020202020202000202C
:1040FE002057656C636F6D6520486F6D65202000DD
:10410E00536574205061737377643A002043686579
:10411E00636B20506173733A0057726F6E67207035
:10412E00617373776F7264007472696573206C6566
:10413E0066743A2000374152414D59005741495457
:10414E002041204D494E5554452000436F727265F3
:10415E0063742070617373776F72640059612031DC
:10416E0030302057656C636F6D65000000000000F5
:10417E00000000000101011F000000000101011FED
:10418E00000A00010001011F000000101010101F96
:10419E0000000042033738392F3435367831323348
:0641AE002D63303D2B00E3
:00000001FF
